:1040000031400039B240805A20013F4000000F93F8
:1040100005242F839F4FBA430011FB233F404200EA
:104020000F9304241F83CF430011FC2330406E40C4
:104030003040344000132183814F00002F410E4F48
:104040003E53814E00000F93F923215330410F5FFF
:104050000F5F1D4270010E43073C1C4270010D9C16
:10406000FC271E531D4270010E9FF72B304131403B
:104070000039B240805A2001B012A6417F4077003B
:10408000B0128641431243123C404A413D405E011A
:104090003E4000040F43B0123C42431253123C40D6
:1040A0000E413D408C003E4000020F43B0123C42A6
:1040B000431263123C40D2403D401E003E4000018E
:1040C0000F43B0123C4232D231500C0032C0D0000B
:1040D000FD3F0B120B4F5E437F401000B01290412A
:1040E0000F4B0F5F0F5F1D4270010E43073C1C42D8
:1040F00070010D9CFC271E531D4270010E9FF72B73
:104100004E437F401000B01290413B4130410B12B2
:104110000B4F5E437F402000B01290410F4B0F5F6A
:104120000F5F1D4270010E43073C1C4270010D9C45
:10413000FC271E531D4270010E9FF72B4E437F40FC
:104140002000B01290413B4130410B120B4F5E43B7
:104150007F404000B01290410F4B0F5F0F5F1D4238
:1041600070010E43073C1C4270010D9CFC271E533E
:104170001D4270010E9FF72B4E437F404000B0124E
:1041800090413B413041C2DF3200C24331003041F7
:104190004E930324C2DF31003041C2CF31003041A1
:1041A000C2EF31003041B240C6016001824372016A
:1041B000B24010006201B2D02000600130415F4285
:1041C00000114E4FDE42310002115F53C24F001109
:1041D000C243310030415F4200117F53C24F001192
:1041E0007FF33F500211E24F310030410F4232C2A3
:1041F0003041024F30413F403911CF4300000E4F54
:104200003E53CE4300006E4E7EF38F4E0100CF43EF
:10421000F0FF0E4F3E50EFFFEE4F00006E4E7EF36C
:104220008F4EF1FFCF43E0FF0E4F3E50DFFFEE4FCA
:1042300000006E4E7EF38F4EE1FF30410B120A12EA
:1042400009120512054135500A006B455945020017
:104250007B90030002285F432E3C0E5E0E5E0E93A1
:1042600003207F400500273C054232C27BF30B5BF5
:104270000B5B0B5B0B5B3B5012111A4B08000A9354
:1042800002246F43173C0F5F0F5F8B4F00008B4E74
:1042900004002E5B8B4E0200CB4A0700CB4A06007F
:1042A0008B4C0C008B4D0A0079D0400079F38B4980
:1042B00008004F4A0245354139413A413B413041BE
:1042C0007FF30F5F1F530F5F0F5F0F5F8F4312115D
:1042D0004F4330410F120E120D120C12B012BE419C
:1042E0003F4032112E432C4F1D4270010D5D0D5D7C
:1042F0000C9D052CDF5306009F5F040000002E93E9
:1043000001202D4F3E533F50F0FF3E93EC23B2402F
:1043100064000611B240190072013F401211B01240
:104320003243B012D6413C413D413E413F41001332
:1043300030410B120A120B4F3B5020002A43DB9BEB
:104340000700060006241F4B0A009B120C00DB53DB
:1043500007003A533B50F0FF3A93F1233A413B4177
:104360003041304130417FF30F5F9F4270010811AF
:1043700030417FF30F5F1E4270011E5F0C111E8FD4
:1043800008118F4E0C113041D253101130413E4074
:104390000C112D4EC24D21003F4E0F4D8F107FF35B
:1043A000C24F29002F4EC24F19008F107FF3C24F0A
:0A43B0001D00D2421011350030410B
:10FFE000304030403040304030403040D4423040EB
:10FFF00030403040304030403040304030400040B1
:0400000300004000B9
:00000001FF
